{
	"_format": "hh-sol-artifact-1",
	"contractName": "LimitedMintERC721",
	"sourceName": "contracts/LimitedMintERC721.sol",
	"abi": [
		{
			"inputs": [
				{
					"internalType": "string",
					"name": "collectionName",
					"type": "string"
				},
				{
					"internalType": "string",
					"name": "collectionSymbol",
					"type": "string"
				},
				{
					"internalType": "string",
					"name": "baseUri",
					"type": "string"
				}
			],
			"stateMutability": "nonpayable",
			"type": "constructor"
		},
		{
			"inputs": [
				{
					"internalType": "address",
					"name": "sender",
					"type": "address"
				},
				{
					"internalType": "uint256",
					"name": "tokenId",
					"type": "uint256"
				},
				{
					"internalType": "address",
					"name": "owner",
					"type": "address"
				}
			],
			"name": "ERC721IncorrectOwner",
			"type": "error"
		},
		{
			"inputs": [
				{
					"internalType": "address",
					"name": "operator",
					"type": "address"
				},
				{
					"internalType": "uint256",
					"name": "tokenId",
					"type": "uint256"
				}
			],
			"name": "ERC721InsufficientApproval",
			"type": "error"
		},
		{
			"inputs": [
				{
					"internalType": "address",
					"name": "approver",
					"type": "address"
				}
			],
			"name": "ERC721InvalidApprover",
			"type": "error"
		},
		{
			"inputs": [
				{
					"internalType": "address",
					"name": "operator",
					"type": "address"
				}
			],
			"name": "ERC721InvalidOperator",
			"type": "error"
		},
		{
			"inputs": [
				{
					"internalType": "address",
					"name": "owner",
					"type": "address"
				}
			],
			"name": "ERC721InvalidOwner",
			"type": "error"
		},
		{
			"inputs": [
				{
					"internalType": "address",
					"name": "receiver",
					"type": "address"
				}
			],
			"name": "ERC721InvalidReceiver",
			"type": "error"
		},
		{
			"inputs": [
				{
					"internalType": "address",
					"name": "sender",
					"type": "address"
				}
			],
			"name": "ERC721InvalidSender",
			"type": "error"
		},
		{
			"inputs": [
				{
					"internalType": "uint256",
					"name": "tokenId",
					"type": "uint256"
				}
			],
			"name": "ERC721NonexistentToken",
			"type": "error"
		},
		{
			"inputs": [
				{
					"internalType": "address",
					"name": "owner",
					"type": "address"
				}
			],
			"name": "OwnableInvalidOwner",
			"type": "error"
		},
		{
			"inputs": [
				{
					"internalType": "address",
					"name": "account",
					"type": "address"
				}
			],
			"name": "OwnableUnauthorizedAccount",
			"type": "error"
		},
		{
			"anonymous": false,
			"inputs": [
				{
					"indexed": true,
					"internalType": "address",
					"name": "owner",
					"type": "address"
				},
				{
					"indexed": true,
					"internalType": "address",
					"name": "approved",
					"type": "address"
				},
				{
					"indexed": true,
					"internalType": "uint256",
					"name": "tokenId",
					"type": "uint256"
				}
			],
			"name": "Approval",
			"type": "event"
		},
		{
			"anonymous": false,
			"inputs": [
				{
					"indexed": true,
					"internalType": "address",
					"name": "owner",
					"type": "address"
				},
				{
					"indexed": true,
					"internalType": "address",
					"name": "operator",
					"type": "address"
				},
				{
					"indexed": false,
					"internalType": "bool",
					"name": "approved",
					"type": "bool"
				}
			],
			"name": "ApprovalForAll",
			"type": "event"
		},
		{
			"anonymous": false,
			"inputs": [
				{
					"indexed": true,
					"internalType": "address",
					"name": "previousOwner",
					"type": "address"
				},
				{
					"indexed": true,
					"internalType": "address",
					"name": "newOwner",
					"type": "address"
				}
			],
			"name": "OwnershipTransferred",
			"type": "event"
		},
		{
			"anonymous": false,
			"inputs": [
				{
					"indexed": true,
					"internalType": "address",
					"name": "from",
					"type": "address"
				},
				{
					"indexed": true,
					"internalType": "address",
					"name": "to",
					"type": "address"
				},
				{
					"indexed": true,
					"internalType": "uint256",
					"name": "tokenId",
					"type": "uint256"
				}
			],
			"name": "Transfer",
			"type": "event"
		},
		{
			"inputs": [
				{
					"internalType": "address",
					"name": "to",
					"type": "address"
				},
				{
					"internalType": "uint256",
					"name": "tokenId",
					"type": "uint256"
				}
			],
			"name": "approve",
			"outputs": [],
			"stateMutability": "nonpayable",
			"type": "function"
		},
		{
			"inputs": [
				{
					"internalType": "address",
					"name": "owner",
					"type": "address"
				}
			],
			"name": "balanceOf",
			"outputs": [
				{
					"internalType": "uint256",
					"name": "",
					"type": "uint256"
				}
			],
			"stateMutability": "view",
			"type": "function"
		},
		{
			"inputs": [
				{
					"internalType": "uint256",
					"name": "tokenId",
					"type": "uint256"
				}
			],
			"name": "getApproved",
			"outputs": [
				{
					"internalType": "address",
					"name": "",
					"type": "address"
				}
			],
			"stateMutability": "view",
			"type": "function"
		},
		{
			"inputs": [
				{
					"internalType": "address",
					"name": "owner",
					"type": "address"
				},
				{
					"internalType": "address",
					"name": "operator",
					"type": "address"
				}
			],
			"name": "isApprovedForAll",
			"outputs": [
				{
					"internalType": "bool",
					"name": "",
					"type": "bool"
				}
			],
			"stateMutability": "view",
			"type": "function"
		},
		{
			"inputs": [
				{
					"internalType": "address",
					"name": "user",
					"type": "address"
				}
			],
			"name": "mintCount",
			"outputs": [
				{
					"internalType": "uint8",
					"name": "",
					"type": "uint8"
				}
			],
			"stateMutability": "view",
			"type": "function"
		},
		{
			"inputs": [
				{
					"internalType": "address",
					"name": "to",
					"type": "address"
				}
			],
			"name": "mintToken",
			"outputs": [],
			"stateMutability": "payable",
			"type": "function"
		},
		{
			"inputs": [],
			"name": "mintToken",
			"outputs": [],
			"stateMutability": "payable",
			"type": "function"
		},
		{
			"inputs": [],
			"name": "name",
			"outputs": [
				{
					"internalType": "string",
					"name": "",
					"type": "string"
				}
			],
			"stateMutability": "view",
			"type": "function"
		},
		{
			"inputs": [],
			"name": "owner",
			"outputs": [
				{
					"internalType": "address",
					"name": "",
					"type": "address"
				}
			],
			"stateMutability": "view",
			"type": "function"
		},
		{
			"inputs": [
				{
					"internalType": "uint256",
					"name": "tokenId",
					"type": "uint256"
				}
			],
			"name": "ownerOf",
			"outputs": [
				{
					"internalType": "address",
					"name": "",
					"type": "address"
				}
			],
			"stateMutability": "view",
			"type": "function"
		},
		{
			"inputs": [],
			"name": "renounceOwnership",
			"outputs": [],
			"stateMutability": "nonpayable",
			"type": "function"
		},
		{
			"inputs": [
				{
					"internalType": "address",
					"name": "from",
					"type": "address"
				},
				{
					"internalType": "address",
					"name": "to",
					"type": "address"
				},
				{
					"internalType": "uint256",
					"name": "tokenId",
					"type": "uint256"
				}
			],
			"name": "safeTransferFrom",
			"outputs": [],
			"stateMutability": "nonpayable",
			"type": "function"
		},
		{
			"inputs": [
				{
					"internalType": "address",
					"name": "from",
					"type": "address"
				},
				{
					"internalType": "address",
					"name": "to",
					"type": "address"
				},
				{
					"internalType": "uint256",
					"name": "tokenId",
					"type": "uint256"
				},
				{
					"internalType": "bytes",
					"name": "data",
					"type": "bytes"
				}
			],
			"name": "safeTransferFrom",
			"outputs": [],
			"stateMutability": "nonpayable",
			"type": "function"
		},
		{
			"inputs": [
				{
					"internalType": "address",
					"name": "operator",
					"type": "address"
				},
				{
					"internalType": "bool",
					"name": "approved",
					"type": "bool"
				}
			],
			"name": "setApprovalForAll",
			"outputs": [],
			"stateMutability": "nonpayable",
			"type": "function"
		},
		{
			"inputs": [
				{
					"internalType": "bytes4",
					"name": "interfaceId",
					"type": "bytes4"
				}
			],
			"name": "supportsInterface",
			"outputs": [
				{
					"internalType": "bool",
					"name": "",
					"type": "bool"
				}
			],
			"stateMutability": "view",
			"type": "function"
		},
		{
			"inputs": [],
			"name": "symbol",
			"outputs": [
				{
					"internalType": "string",
					"name": "",
					"type": "string"
				}
			],
			"stateMutability": "view",
			"type": "function"
		},
		{
			"inputs": [
				{
					"internalType": "uint256",
					"name": "tokenId",
					"type": "uint256"
				}
			],
			"name": "tokenURI",
			"outputs": [
				{
					"internalType": "string",
					"name": "",
					"type": "string"
				}
			],
			"stateMutability": "view",
			"type": "function"
		},
		{
			"inputs": [
				{
					"internalType": "address",
					"name": "from",
					"type": "address"
				},
				{
					"internalType": "address",
					"name": "to",
					"type": "address"
				},
				{
					"internalType": "uint256",
					"name": "tokenId",
					"type": "uint256"
				}
			],
			"name": "transferFrom",
			"outputs": [],
			"stateMutability": "nonpayable",
			"type": "function"
		},
		{
			"inputs": [
				{
					"internalType": "address",
					"name": "newOwner",
					"type": "address"
				}
			],
			"name": "transferOwnership",
			"outputs": [],
			"stateMutability": "nonpayable",
			"type": "function"
		}
	],
	"bytecode": "0x60806040523480156200001157600080fd5b5060405162002f6238038062002f6283398181016040528101906200003791906200039e565b620000476200013d60201b60201c565b838381600090816200005a9190620006a2565b5080600190816200006c9190620006a2565b505050600073ffffffffffffffffffffffffffffffffffffffff168173ffffffffffffffffffffffffffffffffffffffff1603620000e45760006040517f1e4fbdf7000000000000000000000000000000000000000000000000000000008152600401620000db9190620007ce565b60405180910390fd5b620000f5816200014560201b60201c565b508260079081620001079190620006a2565b508160089081620001199190620006a2565b5080600990816200012b9190620006a2565b506000600a81905550505050620007eb565b600033905090565b6000600660009054906101000a900473ffffffffffffffffffffffffffffffffffffffff16905081600660006101000a81548173ffffffffffffffffffffffffffffffffffffffff021916908373ffffffffffffffffffffffffffffffffffffffff1602179055508173ffffffffffffffffffffffffffffffffffffffff168173ffffffffffffffffffffffffffffffffffffffff167f8be0079c531659141344cd1fd0a4f28419497f9722a3daafe3b4186f6b6457e060405160405180910390a35050565b6000604051905090565b600080fd5b600080fd5b600080fd5b600080fd5b6000601f19601f8301169050919050565b7f4e487b7100000000000000000000000000000000000000000000000000000000600052604160045260246000fd5b620002748262000229565b810181811067ffffffffffffffff821117156200029657620002956200023a565b5b80604052505050565b6000620002ab6200020b565b9050620002b9828262000269565b919050565b600067ffffffffffffffff821115620002dc57620002db6200023a565b5b620002e78262000229565b9050602081019050919050565b60005b8381101562000314578082015181840152602081019050620002f7565b60008484015250505050565b6000620003376200033184620002be565b6200029f565b90508281526020810184848401111562000356576200035562000224565b5b62000363848285620002f4565b509392505050565b600082601f8301126200038357620003826200021f565b5b81516200039584826020860162000320565b91505092915050565b600080600060608486031215620003ba57620003b962000215565b5b600084015167ffffffffffffffff811115620003db57620003da6200021a565b5b620003e9868287016200036b565b935050602084015167ffffffffffffffff8111156200040d576200040c6200021a565b5b6200041b868287016200036b565b925050604084015167ffffffffffffffff8111156200043f576200043e6200021a565b5b6200044d868287016200036b565b9150509250925092565b600081519050919050565b7f4e487b7100000000000000000000000000000000000000000000000000000000600052602260045260246000fd5b60006002820490506001821680620004aa57607f821691505b602082108103620004c057620004bf62000462565b5b50919050565b60008190508160005260206000209050919050565b60006020601f8301049050919050565b600082821b905092915050565b6000600883026200052a7fffffffffffffffffffffffffffffffffffffffffffffffffffffffffffffffff82620004eb565b620005368683620004eb565b95508019841693508086168417925050509392505050565b6000819050919050565b6000819050919050565b6000620005836200057d62000577846200054e565b62000558565b6200054e565b9050919050565b6000819050919050565b6200059f8362000562565b620005b7620005ae826200058a565b848454620004f8565b825550505050565b600090565b620005ce620005bf565b620005db81848462000594565b505050565b5b818110156200060357620005f7600082620005c4565b600181019050620005e1565b5050565b601f82111562000652576200061c81620004c6565b6200062784620004db565b8101602085101562000637578190505b6200064f6200064685620004db565b830182620005e0565b50505b505050565b600082821c905092915050565b6000620006776000198460080262000657565b1980831691505092915050565b600062000692838362000664565b9150826002028217905092915050565b620006ad8262000457565b67ffffffffffffffff811115620006c957620006c86200023a565b5b620006d5825462000491565b620006e282828562000607565b600060209050601f8311600181146200071a576000841562000705578287015190505b62000711858262000684565b86555062000781565b601f1984166200072a86620004c6565b60005b8281101562000754578489015182556001820191506020850194506020810190506200072d565b8683101562000774578489015162000770601f89168262000664565b8355505b6001600288020188555050505b505050505050565b600073ffffffffffffffffffffffffffffffffffffffff82169050919050565b6000620007b68262000789565b9050919050565b620007c881620007a9565b82525050565b6000602082019050620007e56000830184620007bd565b92915050565b61276780620007fb6000396000f3fe6080604052600436106101145760003560e01c806370a08231116100a0578063b88d4fde11610064578063b88d4fde1461036f578063c87b56dd14610398578063e985e9c5146103d5578063ed9ec88814610412578063f2fde38b1461044f57610114565b806370a082311461029c578063715018a6146102d95780638da5cb5b146102f057806395d89b411461031b578063a22cb4651461034657610114565b8063095ea7b3116100e7578063095ea7b3146101da5780632004ffd91461020357806323b872dd1461020d57806342842e0e146102365780636352211e1461025f57610114565b806301173a741461011957806301ffc9a71461013557806306fdde0314610172578063081812fc1461019d575b600080fd5b610133600480360381019061012e9190611d38565b610478565b005b34801561014157600080fd5b5061015c60048036038101906101579190611dbd565b610484565b6040516101699190611e05565b60405180910390f35b34801561017e57600080fd5b50610187610566565b6040516101949190611eb0565b60405180910390f35b3480156101a957600080fd5b506101c460048036038101906101bf9190611f08565b6105f8565b6040516101d19190611f44565b60405180910390f35b3480156101e657600080fd5b5061020160048036038101906101fc9190611f5f565b610614565b005b61020b61062a565b005b34801561021957600080fd5b50610234600480360381019061022f9190611f9f565b61063c565b005b34801561024257600080fd5b5061025d60048036038101906102589190611f9f565b61073e565b005b34801561026b57600080fd5b5061028660048036038101906102819190611f08565b61075e565b6040516102939190611f44565b60405180910390f35b3480156102a857600080fd5b506102c360048036038101906102be9190611d38565b610770565b6040516102d09190612001565b60405180910390f35b3480156102e557600080fd5b506102ee61082a565b005b3480156102fc57600080fd5b5061030561083e565b6040516103129190611f44565b60405180910390f35b34801561032757600080fd5b50610330610868565b60405161033d9190611eb0565b60405180910390f35b34801561035257600080fd5b5061036d60048036038101906103689190612048565b6108fa565b005b34801561037b57600080fd5b50610396600480360381019061039191906121bd565b610910565b005b3480156103a457600080fd5b506103bf60048036038101906103ba9190611f08565b61092d565b6040516103cc9190611eb0565b60405180910390f35b3480156103e157600080fd5b506103fc60048036038101906103f79190612240565b610996565b6040516104099190611e05565b60405180910390f35b34801561041e57600080fd5b5061043960048036038101906104349190611d38565b610a2a565b604051610446919061229c565b60405180910390f35b34801561045b57600080fd5b5061047660048036038101906104719190611d38565b610a80565b005b61048181610b06565b50565b60007f80ac58cd000000000000000000000000000000000000000000000000000000007bffffffffffffffffffffffffffffffffffffffffffffffffffffffff1916827bffffffffffffffffffffffffffffffffffffffffffffffffffffffff1916148061054f57507f5b5e139f000000000000000000000000000000000000000000000000000000007bffffffffffffffffffffffffffffffffffffffffffffffffffffffff1916827bffffffffffffffffffffffffffffffffffffffffffffffffffffffff1916145b8061055f575061055e82610d83565b5b9050919050565b606060008054610575906122e6565b80601f01602080910402602001604051908101604052809291908181526020018280546105a1906122e6565b80156105ee5780601f106105c3576101008083540402835291602001916105ee565b820191906000526020600020905b8154815290600101906020018083116105d157829003601f168201915b5050505050905090565b600061060382610ded565b5061060d82610e75565b9050919050565b6106268282610621610eb2565b610eba565b5050565b61063a610635610eb2565b610b06565b565b600073ffffffffffffffffffffffffffffffffffffffff168273ffffffffffffffffffffffffffffffffffffffff16036106ae5760006040517f64a0ae920000000000000000000000000000000000000000000000000000000081526004016106a59190611f44565b60405180910390fd5b60006106c283836106bd610eb2565b610ecc565b90508373ffffffffffffffffffffffffffffffffffffffff168173ffffffffffffffffffffffffffffffffffffffff1614610738578382826040517f64283d7b00000000000000000000000000000000000000000000000000000000815260040161072f93929190612317565b60405180910390fd5b50505050565b61075983838360405180602001604052806000815250610910565b505050565b600061076982610ded565b9050919050565b60008073ffffffffffffffffffffffffffffffffffffffff168273ffffffffffffffffffffffffffffffffffffffff16036107e35760006040517f89c62b640000000000000000000000000000000000000000000000000000000081526004016107da9190611f44565b60405180910390fd5b600360008373ffffffffffffffffffffffffffffffffffffffff1673ffffffffffffffffffffffffffffffffffffffff168152602001908152602001600020549050919050565b6108326110e6565b61083c600061116d565b565b6000600660009054906101000a900473ffffffffffffffffffffffffffffffffffffffff16905090565b606060018054610877906122e6565b80601f01602080910402602001604051908101604052809291908181526020018280546108a3906122e6565b80156108f05780601f106108c5576101008083540402835291602001916108f0565b820191906000526020600020905b8154815290600101906020018083116108d357829003601f168201915b5050505050905090565b61090c610905610eb2565b8383611233565b5050565b61091b84848461063c565b610927848484846113a2565b50505050565b606061093882610ded565b506000610943611559565b90506000815111610963576040518060200160405280600081525061098e565b8061096d846115eb565b60405160200161097e92919061238a565b6040516020818303038152906040525b915050919050565b6000600560008473ffffffffffffffffffffffffffffffffffffffff1673ffffffffffffffffffffffffffffffffffffffff16815260200190815260200160002060008373ffffffffffffffffffffffffffffffffffffffff1673ffffffffffffffffffffffffffffffffffffffff16815260200190815260200160002060009054906101000a900460ff16905092915050565b6000600b60008373ffffffffffffffffffffffffffffffffffffffff1673ffffffffffffffffffffffffffffffffffffffff16815260200190815260200160002060009054906101000a900460ff169050919050565b610a886110e6565b600073ffffffffffffffffffffffffffffffffffffffff168173ffffffffffffffffffffffffffffffffffffffff1603610afa5760006040517f1e4fbdf7000000000000000000000000000000000000000000000000000000008152600401610af19190611f44565b60405180910390fd5b610b038161116d565b50565b6005600b6000610b14610eb2565b73ffffffffffffffffffffffffffffffffffffffff1673ffffffffffffffffffffffffffffffffffffffff16815260200190815260200160002060009054906101000a900460ff1660ff1610610b9f576040517f08c379a0000000000000000000000000000000000000000000000000000000008152600401610b96906123fa565b60405180910390fd5b67016345785d8a0000341015610bea576040517f08c379a0000000000000000000000000000000000000000000000000000000008152600401610be19061248c565b60405180910390fd5b600080610bf561083e565b73ffffffffffffffffffffffffffffffffffffffff1634604051610c18906124dd565b60006040518083038185875af1925050503d8060008114610c55576040519150601f19603f3d011682016040523d82523d6000602084013e610c5a565b606091505b509150915081610c9f576040517f08c379a0000000000000000000000000000000000000000000000000000000008152600401610c969061253e565b60405180910390fd5b6001600b6000610cad610eb2565b73ffffffffffffffffffffffffffffffffffffffff1673ffffffffffffffffffffffffffffffffffffffff16815260200190815260200160002060009054906101000a900460ff16610cff919061258d565b600b6000610d0b610eb2565b73ffffffffffffffffffffffffffffffffffffffff1673ffffffffffffffffffffffffffffffffffffffff16815260200190815260200160002060006101000a81548160ff021916908360ff1602179055506001600a54610d6c91906125c2565b600a81905550610d7e83600a546116b9565b505050565b60007f01ffc9a7000000000000000000000000000000000000000000000000000000007bffffffffffffffffffffffffffffffffffffffffffffffffffffffff1916827bffffffffffffffffffffffffffffffffffffffffffffffffffffffff1916149050919050565b600080610df9836116d7565b9050600073ffffffffffffffffffffffffffffffffffffffff168173ffffffffffffffffffffffffffffffffffffffff1603610e6c57826040517f7e273289000000000000000000000000000000000000000000000000000000008152600401610e639190612001565b60405180910390fd5b80915050919050565b60006004600083815260200190815260200160002060009054906101000a900473ffffffffffffffffffffffffffffffffffffffff169050919050565b600033905090565b610ec78383836001611714565b505050565b600080610ed8846116d7565b9050600073ffffffffffffffffffffffffffffffffffffffff168373ffffffffffffffffffffffffffffffffffffffff1614610f1a57610f198184866118d9565b5b600073ffffffffffffffffffffffffffffffffffffffff168173ffffffffffffffffffffffffffffffffffffffff1614610fab57610f5c600085600080611714565b6001600360008373ffffffffffffffffffffffffffffffffffffffff1673ffffffffffffffffffffffffffffffffffffffff168152602001908152602001600020600082825403925050819055505b600073ffffffffffffffffffffffffffffffffffffffff168573ffffffffffffffffffffffffffffffffffffffff161461102e576001600360008773ffffffffffffffffffffffffffffffffffffffff1673ffffffffffffffffffffffffffffffffffffffff168152602001908152602001600020600082825401925050819055505b846002600086815260200190815260200160002060006101000a81548173ffffffffffffffffffffffffffffffffffffffff021916908373ffffffffffffffffffffffffffffffffffffffff160217905550838573ffffffffffffffffffffffffffffffffffffffff168273ffffffffffffffffffffffffffffffffffffffff167fddf252ad1be2c89b69c2b068fc378daa952ba7f163c4a11628f55a4df523b3ef60405160405180910390a4809150509392505050565b6110ee610eb2565b73ffffffffffffffffffffffffffffffffffffffff1661110c61083e565b73ffffffffffffffffffffffffffffffffffffffff161461116b5761112f610eb2565b6040517f118cdaa70000000000000000000000000000000000000000000000000000000081526004016111629190611f44565b60405180910390fd5b565b6000600660009054906101000a900473ffffffffffffffffffffffffffffffffffffffff16905081600660006101000a81548173ffffffffffffffffffffffffffffffffffffffff021916908373ffffffffffffffffffffffffffffffffffffffff1602179055508173ffffffffffffffffffffffffffffffffffffffff168173ffffffffffffffffffffffffffffffffffffffff167f8be0079c531659141344cd1fd0a4f28419497f9722a3daafe3b4186f6b6457e060405160405180910390a35050565b600073ffffffffffffffffffffffffffffffffffffffff168273ffffffffffffffffffffffffffffffffffffffff16036112a457816040517f5b08ba1800000000000000000000000000000000000000000000000000000000815260040161129b9190611f44565b60405180910390fd5b80600560008573ffffffffffffffffffffffffffffffffffffffff1673ffffffffffffffffffffffffffffffffffffffff16815260200190815260200160002060008473ffffffffffffffffffffffffffffffffffffffff1673ffffffffffffffffffffffffffffffffffffffff16815260200190815260200160002060006101000a81548160ff0219169083151502179055508173ffffffffffffffffffffffffffffffffffffffff168373ffffffffffffffffffffffffffffffffffffffff167f17307eab39ab6107e8899845ad3d59bd9653f200f220920489ca2b5937696c31836040516113959190611e05565b60405180910390a3505050565b60008373ffffffffffffffffffffffffffffffffffffffff163b1115611553578273ffffffffffffffffffffffffffffffffffffffff1663150b7a026113e6610eb2565b8685856040518563ffffffff1660e01b8152600401611408949392919061264b565b6020604051808303816000875af192505050801561144457506040513d601f19601f8201168201806040525081019061144191906126ac565b60015b6114c8573d8060008114611474576040519150601f19603f3d011682016040523d82523d6000602084013e611479565b606091505b5060008151036114c057836040517f64a0ae920000000000000000000000000000000000000000000000000000000081526004016114b79190611f44565b60405180910390fd5b805181602001fd5b63150b7a0260e01b7bffffffffffffffffffffffffffffffffffffffffffffffffffffffff1916817bffffffffffffffffffffffffffffffffffffffffffffffffffffffff19161461155157836040517f64a0ae920000000000000000000000000000000000000000000000000000000081526004016115489190611f44565b60405180910390fd5b505b50505050565b606060098054611568906122e6565b80601f0160208091040260200160405190810160405280929190818152602001828054611594906122e6565b80156115e15780601f106115b6576101008083540402835291602001916115e1565b820191906000526020600020905b8154815290600101906020018083116115c457829003601f168201915b5050505050905090565b6060600060016115fa8461199d565b01905060008167ffffffffffffffff81111561161957611618612092565b5b6040519080825280601f01601f19166020018201604052801561164b5781602001600182028036833780820191505090505b509050600082602001820190505b6001156116ae578080600190039150507f3031323334353637383961626364656600000000000000000000000000000000600a86061a8153600a85816116a2576116a16126d9565b5b04945060008503611659575b819350505050919050565b6116d3828260405180602001604052806000815250611af0565b5050565b60006002600083815260200190815260200160002060009054906101000a900473ffffffffffffffffffffffffffffffffffffffff169050919050565b808061174d5750600073ffffffffffffffffffffffffffffffffffffffff168273ffffffffffffffffffffffffffffffffffffffff1614155b1561188157600061175d84610ded565b9050600073ffffffffffffffffffffffffffffffffffffffff168373ffffffffffffffffffffffffffffffffffffffff16141580156117c857508273ffffffffffffffffffffffffffffffffffffffff168173ffffffffffffffffffffffffffffffffffffffff1614155b80156117db57506117d98184610996565b155b1561181d57826040517fa9fbf51f0000000000000000000000000000000000000000000000000000000081526004016118149190611f44565b60405180910390fd5b811561187f57838573ffffffffffffffffffffffffffffffffffffffff168273ffffffffffffffffffffffffffffffffffffffff167f8c5be1e5ebec7d5bd14f71427d1e84f3dd0314c0f7b2291e5b200ac8c7c3b92560405160405180910390a45b505b836004600085815260200190815260200160002060006101000a81548173ffffffffffffffffffffffffffffffffffffffff021916908373ffffffffffffffffffffffffffffffffffffffff16021790555050505050565b6118e4838383611b0c565b61199857600073ffffffffffffffffffffffffffffffffffffffff168373ffffffffffffffffffffffffffffffffffffffff160361195957806040517f7e2732890000000000000000000000000000000000000000000000000000000081526004016119509190612001565b60405180910390fd5b81816040517f177e802f00000000000000000000000000000000000000000000000000000000815260040161198f929190612708565b60405180910390fd5b505050565b600080600090507a184f03e93ff9f4daa797ed6e38ed64bf6a1f01000000000000000083106119fb577a184f03e93ff9f4daa797ed6e38ed64bf6a1f01000000000000000083816119f1576119f06126d9565b5b0492506040810190505b6d04ee2d6d415b85acef81000000008310611a38576d04ee2d6d415b85acef81000000008381611a2e57611a2d6126d9565b5b0492506020810190505b662386f26fc100008310611a6757662386f26fc100008381611a5d57611a5c6126d9565b5b0492506010810190505b6305f5e1008310611a90576305f5e1008381611a8657611a856126d9565b5b0492506008810190505b6127108310611ab5576127108381611aab57611aaa6126d9565b5b0492506004810190505b60648310611ad85760648381611ace57611acd6126d9565b5b0492506002810190505b600a8310611ae7576001810190505b80915050919050565b611afa8383611bcd565b611b0760008484846113a2565b505050565b60008073ffffffffffffffffffffffffffffffffffffffff168373ffffffffffffffffffffffffffffffffffffffff1614158015611bc457508273ffffffffffffffffffffffffffffffffffffffff168473ffffffffffffffffffffffffffffffffffffffff161480611b855750611b848484610996565b5b80611bc357508273ffffffffffffffffffffffffffffffffffffffff16611bab83610e75565b73ffffffffffffffffffffffffffffffffffffffff16145b5b90509392505050565b600073ffffffffffffffffffffffffffffffffffffffff168273ffffffffffffffffffffffffffffffffffffffff1603611c3f5760006040517f64a0ae92000000000000000000000000000000000000000000000000000000008152600401611c369190611f44565b60405180910390fd5b6000611c4d83836000610ecc565b9050600073ffffffffffffffffffffffffffffffffffffffff168173ffffffffffffffffffffffffffffffffffffffff1614611cc15760006040517f73c6ac6e000000000000000000000000000000000000000000000000000000008152600401611cb89190611f44565b60405180910390fd5b505050565b6000604051905090565b600080fd5b600080fd5b600073ffffffffffffffffffffffffffffffffffffffff82169050919050565b6000611d0582611cda565b9050919050565b611d1581611cfa565b8114611d2057600080fd5b50565b600081359050611d3281611d0c565b92915050565b600060208284031215611d4e57611d4d611cd0565b5b6000611d5c84828501611d23565b91505092915050565b60007fffffffff0000000000000000000000000000000000000000000000000000000082169050919050565b611d9a81611d65565b8114611da557600080fd5b50565b600081359050611db781611d91565b92915050565b600060208284031215611dd357611dd2611cd0565b5b6000611de184828501611da8565b91505092915050565b60008115159050919050565b611dff81611dea565b82525050565b6000602082019050611e1a6000830184611df6565b92915050565b600081519050919050565b600082825260208201905092915050565b60005b83811015611e5a578082015181840152602081019050611e3f565b60008484015250505050565b6000601f19601f8301169050919050565b6000611e8282611e20565b611e8c8185611e2b565b9350611e9c818560208601611e3c565b611ea581611e66565b840191505092915050565b60006020820190508181036000830152611eca8184611e77565b905092915050565b6000819050919050565b611ee581611ed2565b8114611ef057600080fd5b50565b600081359050611f0281611edc565b92915050565b600060208284031215611f1e57611f1d611cd0565b5b6000611f2c84828501611ef3565b91505092915050565b611f3e81611cfa565b82525050565b6000602082019050611f596000830184611f35565b92915050565b60008060408385031215611f7657611f75611cd0565b5b6000611f8485828601611d23565b9250506020611f9585828601611ef3565b9150509250929050565b600080600060608486031215611fb857611fb7611cd0565b5b6000611fc686828701611d23565b9350506020611fd786828701611d23565b9250506040611fe886828701611ef3565b9150509250925092565b611ffb81611ed2565b82525050565b60006020820190506120166000830184611ff2565b92915050565b61202581611dea565b811461203057600080fd5b50565b6000813590506120428161201c565b92915050565b6000806040838503121561205f5761205e611cd0565b5b600061206d85828601611d23565b925050602061207e85828601612033565b9150509250929050565b600080fd5b600080fd5b7f4e487b7100000000000000000000000000000000000000000000000000000000600052604160045260246000fd5b6120ca82611e66565b810181811067ffffffffffffffff821117156120e9576120e8612092565b5b80604052505050565b60006120fc611cc6565b905061210882826120c1565b919050565b600067ffffffffffffffff82111561212857612127612092565b5b61213182611e66565b9050602081019050919050565b82818337600083830152505050565b600061216061215b8461210d565b6120f2565b90508281526020810184848401111561217c5761217b61208d565b5b61218784828561213e565b509392505050565b600082601f8301126121a4576121a3612088565b5b81356121b484826020860161214d565b91505092915050565b600080600080608085870312156121d7576121d6611cd0565b5b60006121e587828801611d23565b94505060206121f687828801611d23565b935050604061220787828801611ef3565b925050606085013567ffffffffffffffff81111561222857612227611cd5565b5b6122348782880161218f565b91505092959194509250565b6000806040838503121561225757612256611cd0565b5b600061226585828601611d23565b925050602061227685828601611d23565b9150509250929050565b600060ff82169050919050565b61229681612280565b82525050565b60006020820190506122b1600083018461228d565b92915050565b7f4e487b7100000000000000000000000000000000000000000000000000000000600052602260045260246000fd5b600060028204905060018216806122fe57607f821691505b602082108103612311576123106122b7565b5b50919050565b600060608201905061232c6000830186611f35565b6123396020830185611ff2565b6123466040830184611f35565b949350505050565b600081905092915050565b600061236482611e20565b61236e818561234e565b935061237e818560208601611e3c565b80840191505092915050565b60006123968285612359565b91506123a28284612359565b91508190509392505050565b7f4d6178206d696e74696e67206361706163697479207265616368656400000000600082015250565b60006123e4601c83611e2b565b91506123ef826123ae565b602082019050919050565b60006020820190508181036000830152612413816123d7565b9050919050565b7f506c6561736520706179206174206c6561737420302e312045544820746f206d60008201527f696e740000000000000000000000000000000000000000000000000000000000602082015250565b6000612476602383611e2b565b91506124818261241a565b604082019050919050565b600060208201905081810360008301526124a581612469565b9050919050565b600081905092915050565b50565b60006124c76000836124ac565b91506124d2826124b7565b600082019050919050565b60006124e8826124ba565b9150819050919050565b7f4661696c656420746f2073656e64204574686572000000000000000000000000600082015250565b6000612528601483611e2b565b9150612533826124f2565b602082019050919050565b600060208201905081810360008301526125578161251b565b9050919050565b7f4e487b7100000000000000000000000000000000000000000000000000000000600052601160045260246000fd5b600061259882612280565b91506125a383612280565b9250828201905060ff8111156125bc576125bb61255e565b5b92915050565b60006125cd82611ed2565b91506125d883611ed2565b92508282019050808211156125f0576125ef61255e565b5b92915050565b600081519050919050565b600082825260208201905092915050565b600061261d826125f6565b6126278185612601565b9350612637818560208601611e3c565b61264081611e66565b840191505092915050565b60006080820190506126606000830187611f35565b61266d6020830186611f35565b61267a6040830185611ff2565b818103606083015261268c8184612612565b905095945050505050565b6000815190506126a681611d91565b92915050565b6000602082840312156126c2576126c1611cd0565b5b60006126d084828501612697565b91505092915050565b7f4e487b7100000000000000000000000000000000000000000000000000000000600052601260045260246000fd5b600060408201905061271d6000830185611f35565b61272a6020830184611ff2565b939250505056fea2646970667358221220253fb9814eeac35d5edb54a8ce0b44c1088e6ab751247684e739960f55786cd664736f6c63430008140033",
	"linkReferences": {},
	"deployedLinkReferences": {}
}